from_address,nonce,to,value,gas,gasPrice,signed_tx
0x57e94Ae9cfb306166EB05cB5A4eA7151d45862eD,0,0x388C818CA8B9251b393131C08a736A67ccB19297,100000000000000000,2000000,50000000000,0xf86d80850ba43b7400831e848094388c818ca8b9251b393131c08a736a67ccb1929788016345785d8a0000801ba06049f0f9d148305b54d2437bbcfa08b96cfb54a42713a4a2bd5bcbf14f9b208ba07aadbe6d3b95d46696df6bc6a36c207560cfc03701d118a08de56ba478e10714
0x6f34fAa37cd0749E72322dEe517584eB9aB2d8ae,0,0x388C818CA8B9251b393131C08a736A67ccB19297,100000000000000000,2000000,50000000000,0xf86d80850ba43b7400831e848094388c818ca8b9251b393131c08a736a67ccb1929788016345785d8a0000801ca05ba5be6678b300c327625e69ebac635224b322e5dc26861f49e497ffb9dfeb91a07de025e4dd71b9f397e0ca900b388d94141004811c6a202ec7866ce8133c97b5
0x3A74a0C21533c3C97e7a8E06ad01CBCe041202eB,0,0x388C818CA8B9251b393131C08a736A67ccB19297,100000000000000000,2000000,50000000000,0xf86d80850ba43b7400831e848094388c818ca8b9251b393131c08a736a67ccb1929788016345785d8a0000801ca04c1468e68418dd50f860ce25e52206b7f11c7dc23b0944f34b7e2088e17cde63a0272087b971bcbda1b9306851a7502601d032e6f6c98e4496926866b122700451
0x8Fc2FbdDe0c7bA19f985607fCF2dA3B61F7E43ad,0,0x388C818CA8B9251b393131C08a736A67ccB19297,100000000000000000,2000000,50000000000,0xf86d80850ba43b7400831e848094388c818ca8b9251b393131c08a736a67ccb1929788016345785d8a0000801ba03af607b8b990e7362875b4f12ac00d4d2007adeeb71cd2713273df857f41b522a05853d2e38a53be0b17926dabe0a656e945138a273be14a3b49c0fb9646d5f93d
0xAC9D19898E709611feB45335762266608776acdc,0,0x388C818CA8B9251b393131C08a736A67ccB19297,100000000000000000,2000000,50000000000,0xf86d80850ba43b7400831e848094388c818ca8b9251b393131c08a736a67ccb1929788016345785d8a0000801ba0cbb6e6f8fc7987055145fb1ce4f62d272a11056c942f6536a043df2a28b704eda04108084d16145191998aabf35988b44842c4731fd0bef3876d1cd45152239511
